S014000046696E616C5F70726F6A6563742E6D6F742D
S21400000000400020B5040000FD040000FD040000D0
S214000010FD040000FD040000FD04000000000000D8
S214000020000000000000000000000000FD040000CA
S214000030FD04000000000000FD040000BDC3000039
S214000040A56E0000AF6E0000B96E0000C36E000023
S214000050CD6E0000D76E0000E16E0000EB6E000073
S214000060F56E0000FF6E0000096F0000136F0000C1
S2140000701D6F0000276F0000316F00003B6F00000F
S214000080456F0000FD040000FD040000FD040000B4
S214000090FD040000FD040000FD040000FD04000057
S2140000A0FD040000FD040000FD040000FD04000047
S2140000B0FD040000FD040000FD040000FD04000037
S2140000C0FD040000FD040000FD040000FD04000027
S2140000D0FD040000FD040000FD040000FD04000017
S2140000E0FD040000FD040000FD040000FD04000007
S2140000F0FD040000FD040000FD040000FD040000F7
S2140001000FC30000FD040000FD040000FD04000015
S214000110FD040000FD040000FD040000FD040000D6
S214000120FD040000FD040000FD040000FD040000C6
S214000130FD040000FD040000FD040000FD040000B6
S214000140FD040000FD040000FD040000FD040000A6
S214000150FD040000FD040000FD040000FD04000096
S214000160FD040000FD040000FD040000FD04000086
S214000170FD040000FD040000258F00002F8F000006
S214000180398F0000438F00004D8F0000FD040000F3
S214000190FD040000578F0000618F0000FD04000082
S2140001A06B8F0000FD040000FD040000FD0400004D
S2140001B07F8F0000898F0000FD040000938F0000F1
S2140001C0FD040000FD040000FD040000E99D0000A1
S2140001D0F59D0000019E00000D9E0000FD0400003D
S2140001E0FD040000199E0000259E0000319E0000C0
S2140001F03D9E0000FD040000FD040000499E000036
S214000200559E0000619E00006D9E0000FD040000EB
S214000210FD040000799E0000859E0000919E00006F
S2140002209D9E0000FD040000FD040000FD0400008B
S214000230FD040000FD040000FD040000FD040000B5
S214000240FD040000FD040000FD040000FD040000A5
S214000250FD040000FD040000FD040000FD04000095
S214000260FD040000FD040000FD040000FD04000085
S214000270FD040000FD040000FD040000FD04000075
S214000280FD040000FD040000FD040000FD04000065
S214000290FD040000FD040000FD040000FD04000055
S2140002A0FD040000FD040000FD040000FD04000045
S2140002B0FD040000FD040000FD040000FD04000035
S2140002C0FD040000FD040000FD040000FD04000025
S2140002D0FD040000FD040000FD040000FD04000015
S2140002E0FD040000FD040000FD040000FD04000005
S2140002F0FD040000FD040000FD040000FD040000F5
S214000300FD040000FD040000FD040000FD040000E4
S214000310FD040000FD040000FD040000FD040000D4
S214000320FD040000FD040000FD040000FD040000C4
S214000330FD040000FD040000FD040000FD040000B4
S214000340FD040000FD040000FD040000FD040000A4
S214000350FD040000FD040000FD040000FD04000094
S214000360FD040000FD040000FD040000FD04000084
S214000370FD040000FD040000FD040000FD04000074
S214000380FD040000FD040000FD040000FD04000064
S214000390FD040000FD040000FD040000FD04000054
S2140003A0FD040000FD040000FD040000FD04000044
S2140003B0FD040000FD040000FD040000FD04000034
S2140003C0FD040000FD040000FD040000FD04000024
S2140003D0FD040000FD040000FD040000FD04000014
S2140003E0FD040000FD040000FD040000FD04000004
S2140003F0FD040000FD040000FD040000FFFFFFFFF9
S214000400FFFFFFFFFFFFFFFFFFFFFFFFFE7FFFFF78
S214000410044B05481B1A062B02D9044B03B1184798
S214000420704700BF3FA1FF1F3CA1FF1F0000000058
S21400043005490648091A891001EBD171491002D006
S214000440034B03B1184770473CA1FF1F3CA1FF1F99
S2140004500000000010B5064C237843B9FFF7D8FF1C
S214000460044B13B10448AFF300800123237010BD82
S21400047000000020000000008C0A010008B5084BB0
S2140004801BB108490848AFF300800848036813B951
S214000490BDE80840CCE7064B002BF9D09847F7E7B5
S2140004A000000000040000208C0A010038A1FF1F95
S2140004B00000000072B64FF000014FF000024FF04F
S2140004C000034FF000044FF000054FF000064FF019
S2140004D00007B846B946BA46BB46BC4604488546F9
S2140004E0044880470448804762B60BF051FFFEE799
S2140004F0004000204DD1000075D00000FFF7FEBF81
S2140005002DE9F8430F1E1FDD1446061F00254FF089
S21400051000084FF0000956F8040F0CF0C3FF41EC3A
S214000520100B20460DF0B2FD53EC102B404649460A
S2140005300CF07CFE8046894620340135AF42EAD175
S21400054049EC108BBDE8F8834FF000084FF0000927
S214000550F6E72DE9F04F8BB0079109920893159BAB
S214000560002B08DD149B159903EB8101002243F84C
S214000570042B8B42FBD1079B002B60DD031F0493EB
S214000580149B039300230293049A52F8043F0492A8
S2140005904FEA134A1FFA83F9029B0693159AD31A59
S2140005A0089A9342A8BF13460593002B4ADD099A82
S2140005B0904602EB83030193DDF80CE00022DEF8A0
S2140005C0001058F8040B030C80B200FB0AFC03FB77
S2140005D009F789182CBF0125002500FB09F0014406
S2140005E04FEA0C4B01EB0B063C0432194EF8042B79
S2140005F005EB1C4503FB0A5303EB1747884294BFE1
S2140006003946791CB34594BF0E464E1C944294BF9F
S2140006103246721C019B9845D1D1059B06990B4426
S21400062015999942C4BF149941F82320029B0133BF
S2140006300293039A04320392079A9A42A4D10BB00B
S214000640BDE8F08F029B0022EAE7064A537AB3FA27
S21400065083F35B094370937AB3FA83F35B09837081
S214000660704700BF4001002003680B6043681360BA
S214000670704703680B6043681360704710B582B01C
S2140006805D4B997AB1FA81F25209DA725B7A002BE5
S21400069040F09680584B1A7301225A724B1CDBB2FC
S2140006A0632B40F298800022534B9A72002900F088
S2140006B09580524B1A78524B93F8FD32012A14BF9C
S2140006C000210121994206D0032A04D000200021EF
S2140006D04C4AC2E90001494A13704A4C00224A4B70
S2140006E0D4E900010CF0A2FDC4E90001444C0DF071
S2140006F003FA204490F82F3284F89432012204F54D
S214000700257110460BF00EF8404A0221002007F033
S214000710D3FA3F4A0321002007F0CEFA3D4A0C21C7
S214000720002007F0C9FA3C4A0D21002007F0C4FA61
S2140007303A4A0E21002007F0BFFA394A0F2100205E
S21400074007F0BAFA374A1021002007F0B5FA364A01
S2140007501121002007F0B0FA344A0421002007F0E7
S214000760ABFA334A0521002007F0A6FA314A0621E3
S214000770002007F0A1FA304A0721002007F09CFA73
S2140007802E4A0821002007F097FA2D4A092100205A
S21400079007F092FA2B4A0A21002007F08DFA2A4A1F
S2140007A00B21002007F088FA012301930021009115
S2140007B04FF480430A46032009F0FCFB02B010BD4C
S2140007C00133DBB2132B03D900220B4B5A7265E7B9
S2140007D0094A537262E7084A937267E7084809496C
S2140007E091F8E63080F8FD325A227F3100F50C7021
S2140007F00FF03EFC5DE700BF40010020740A0020B9
S21400080048060020000400200000F03FB00500204D
S214000810F400002050010020E8010020780A0020A3
S214000820A8000020CC020020C40A0020100B0020E4
S214000830FC0500209C0100208002002018030020F8
S2140008403402002064030020B00300202DE9F04F9E
S2140008502DED088B93B0064B93F8E73073B9054B34
S2140008605A68034BDB6DD31A08EE103A08E000BF57
S2140008700004002040010020000000001FED028A56
S214000880DD4DDE4B5B68EB65002385F8E730DC4C1E
S214000890D4F824B2C4F860B0D4F828326366D4F82A
S2140008A01C32A366D4F82072E766D4F814A2C4F803
S2140008B070A0D4F818326367D4F80C32A367D4F863
S2140008C01062E667D4F80492C4F88090D4F8083230
S2140008D0C4F88430D4F8FC31C4F88830D4F8000268
S2140008E0C4F88C00D4F8F481C4F89080D4F8F831B9
S2140008F0C4F89430D4F8EC31C4F89830D4F8F01139
S214000900C4F89C10D4F8E4E1C4F8A0E0D4F8E831C8
S214000910C4F8A430D4F8DC31C4F8A830D4F8E02108
S214000920C4F8AC20D4F8D4C1C4F8B0C0D4F8D831D8
S214000930C4F8B430D4F8CC31C4F8B830D4F8D031D8
S214000940C4F8BC30D5ED087AC4ED307AC4F8C4B02B
S214000950C4F8C8A0C4F8CC90C4F8D080C4F8D4E0DA
S214000960C4F8D8C0D5F82CC0C4F8DCC0C4F8E07011
S214000970C4F8E460C4F8E800C4F8EC10C4F8F0204A
S214000980C4F8F4309F480BF058FEC0F3803084F86B
S214000990FE0204F58073009304F1FC0304F1F802F0
S2140009A004F1DC0104F1C00003F030F995F8E430FE
S2140009B0002B40F03981012485F8E44085F8E540B5
S2140009C00027904E30460BF038FE8D4DC0F3801059
S2140009D085F8FF0230460BF030FEC0F3C01085F8F5
S2140009E0000330460BF029FEC0F3002085F8010313
S2140009F030460BF022FEC0F3402085F80203304656
S214000A000BF01BFEC0F3802085F8030330460BF086
S214000A1014FEC0F3C02085F8040330460BF00DFE2C
S214000A20C0F3003085F8050330460BF006FEC0F331
S214000A30403085F80603002F40D095F8041395F84B
S214000A4005339B0103EB411395F8FF120B4495F811
S214000A50031303EB011395F8021303EBC10395F898
S214000A60011303EB810395F8001303EB410303EB3B
S214000A70C01307EE903AFAEECF7A5F4B93ED0B7AFF
S214000A8037EEC77A93ED126ADFED5F6A67EE266A85
S214000A9076EE866ADFED5D5A67EEA57A76EEA77A81
S214000AA0C5ED417ADFED5A7A67EE277A9FED597ADF
S214000AB067EE877A77EE867AC3ED127A00258DF890
S214000AC03050ADF832500CAA2946284603F095FB64
S214000AD0284603F04BFC0DF12E022946284603F06B
S214000AE05BFCBDF82E20464B5A60002C40F04A8135
S214000AF0494B5B681FFA83FA4149A1F82E323E4AF9
S214000B00B2F87C30AAEB03031BB207EE903AF8EE7D
S214000B10E77A9FED427A67EE877A92ED0C7A77EE67
S214000B20877AC2ED0C7A9FED3E7A67EE877AC1ED42
S214000B30427A92F8E0307BB9F8EE487A9FED357A43
S214000B4067EE877A92ED137A67EE877A92ED0D7AE2
S214000B5077EE877AC2ED0D7A274B93F8E13083B9AA
S214000B60254BF8EE487A9FED2B7A67EE877A93ED61
S214000B70147A67EE877A93ED0E7A77EE877AC3ED6E
S214000B800E7A1D4BD86B1E4AC2F8900193F8E230DD
S214000B90002B00F01C81184B1A6C194BC3F89421DB
S214000BA00CF0A2FC9FED121B41EC100B0DF064FB49
S214000BB055EC104B1B4BD3E9022310EE100A2946C6
S214000BC00CF05CFF002840F01581164F0126D7E98F
S214000BD01223204629460CF051FF002840F00B81D6
S214000BE0013640371F2EF2D106E100BFAFF300807A
S214000BF00E684C35DA4DA14000040020400100206C
S214000C004806002000F10F4000409C450000C84206
S214000C10000048420AD7233C00A0034075C8CD3ADE
S214000C20CDCC4CBE5095FF1FC34B93F8E530012B3F
S214000C3042D0022B4CD0C14BD3ED407AB3EE047AAF
S214000C40F4EEC77AF1EE10FA00F28E80F5EE407AF6
S214000C50F1EE10FA00F08880D3ED3F6AB64BD3ED84
S214000C600B7AF4EEE76AF1EE10FA7DD51A46022307
S214000C7082F8E530B14B93ED3E7A92ED086A37EE96
S214000C80466AB3EE047A37EE467A9FEDAD6A27EEF3
S214000C90067A76EEE77A9FEDAB6A67EE867A77EEAF
S214000CA0277A9FEDA97A66EE876A77EEA67AC3ED75
S214000CB0417A0024274684E6A04B93F8FE72002F64
S214000CC05BD003229C4B83F8E5200024012778E6BE
S214000CD09A4BD3ED3F6A984B93ED0B7AF1EE047A7C
S214000CE077EE277AF4EEE76AF1EE10FA09DC934B1A
S214000CF093ED406AF3EE097AB4EEE76AF1EE10FA85
S214000D0006DD03228C4B83F8E5200024012758E6F5
S214000D108A4B93F8FE7227B90124874B83F8E54087
S214000D204FE6864BD3ED3E7A834A92ED086A37EE5D
S214000D30C66AF3EE047A77EEC67A9FED816A27EEEE
S214000D40866A76EEC77A9FED7F7A67EE877A76EECA
S214000D50277A9FED7D7A66EE876A77EEA66AC3ED00
S214000D60416A002427462CE6744B93F8FE7237B986
S214000D700124714B83F8E54023E6012421E6002494
S214000D8001271EE612A84FF07A4340F80C3D6F4C40
S214000D900226019610AD0095012322461946FFF75C
S214000DA0D8FB002231462846FFF7AAFB0022684BF4
S214000DB051EC100B0CF0F0FB0022664B0CF034FAF2
S214000DC00CF0C2FE80F00040C4F8000190E6F8EE99
S214000DD0487A9FED617A67EE877A574B93ED157ADE
S214000DE067EE877A93ED107A77EE877A534BC3EDEA
S214000DF0657AD5E60026013EB301584AD35C012B3E
S214000E004DD0022B00F0B0804B4B93F8E330002B14
S214000E1000F0FA80484B5A6C484BC3F8A021504C5F
S214000E20012207924F4B06930592A3F10801049105
S214000E300392103B029304F108030193231D0093D1
S214000E402346A4F11002211FA4F19C0002F030FFFB
S214000E5054F8140C0CF048FB9FED351B41EC100BBE
S214000E600DF00AFA55EC104B3C4BD3E9022310EE7A
S214000E70100A29460CF002FE002840F0D880374FB2
S214000E800126D7E91223204629460CF0F7FD002854
S214000E9040F0CE80013640371F2EF2D1C9E02F4BEE
S214000EA003EB8616D6E90623D6E90A010CF0BCF950
S214000EB004460D46D6E90823D6E90C010CF0B4F931
S214000EC006460F4622462B46204629460CF064FB73
S214000ED08046894632463B46304639460CF05CFB37
S214000EE002460B46404649460CF0A0F941EC100B72
S214000EF00DF026FA59EC108BDFF840B010EE102AF1
S214000F004B46304639460CF071FC0CF01DFECBF813
S214000F10980142464B46204629460CF067FC0CF0EA
S214000F2013FE80F00040CBF89C016DE7AFF3008025
S214000F300E684C35DA4DA14000040020480600201B
S214000F4000803BC5002099450000C8424C060020A2
S214000F500000F03D00409F400AD7233C5095FF1FFD
S214000F60EC070020E0010100AD4F07EB8617D7E93C
S214000F700223204629460CF057F904460D4697F9F9
S214000F8038000CF09FFA002200230CF095FD28B3E1
S214000F90D7E90423204629460CF028FCD7E90A2383
S214000FA00CF044F941EC190BB0EE490AF0EE690A70
S214000FB00CF0A6FF9B4C51EC100B0CF0C5FDC4F8D2
S214000FC09801B0EE490AF0EE690A0DF00DF951EC01
S214000FD0100B0CF0B9FDC4F89C0115E7204605F18E
S214000FE000418F4B03EB8616D6E904230CF0FEFB7C
S214000FF0D6E90A230CF01AF985A3D3E900230CF0EE
S21400100015F941EC190BCFE7F8EE487A9FED868A82
S21400101067EE887A854B93ED167A67EE877A93EDBE
S214001020117A77EE877A7F4BC3ED687AF7E600266B
S214001030013EDFF8EC81B70108EB0703D3E9022392
S214001040204629460CF0F0F804460D4618F80730FE
S214001050012B35D0022B66D0744A724B92ED0D8A66
S214001060D3ED6C7A38EE678AD2ED0E8AD3ED6D7AC0
S21400107078EEE78AD3F890010CF036FA9FED661BFF
S21400108041EC100B0DF0F8F855EC104B644BD3E91F
S214001090022310EE100A29460CF0F0FC002840F05F
S2140010A081805F4F0126D7E91223204629460CF09F
S2140010B0E5FC002877D1013640371F2EF3D173E0C8
S2140010C0574B03EB8616D6E90689D6E904230CF0BF
S2140010D08DFBCDE90801534C42464B46D6E90A0142
S2140010E00CF0A2F8DDE908230CF056FA42464B460F
S2140010F00CF09CF80CF028FDC4F8B001D6E908897D
S21400110042464B46D6E90C010CF08EF8DDE9082382
S2140011100CF042FA42464B460CF088F80CF014FDF0
S214001120C4F8B40198E73E4B03EB8616D6E904896B
S21400113096F938000CF0C6F922462B460CF02CFA2D
S21400114042464B460CF052FBD6E90A230CF06EF8EA
S21400115041EC180B41EC100B0CF0D2FE314C53EC6A
S214001160102B404649460CF017FAD6E906230CF039
S2140011705DF80CF0E9FCC4F8B001B0EE480AF0EEF9
S214001180680A0DF031F853EC102B404649460CF037
S21400119003FAD6E908230CF049F80CF0D5FCC4F89D
S2140011A0B40159E70026013EB3011D4AD35C012B6A
S2140011B03ED0022B00F083801A4BD3ED6F7A27EED9
S2140011C0C89AD3F890010CF08FF99FED131B41ECF1
S2140011D0100B0DF051F855EC104B114BD3E90223D0
S2140011E010EE100A29460CF049FC002840F0C0809A
S2140011F00B4F0126D7E91223204629460CF03EFC69
S214001200002840F0B680013640371F2EF2D1B1E0FC
S214001210112D4454FB2109400E684C35DA4DA1408F
S2140012205095FF1F480600200AD7233C00040020E4
S2140012304D4B03EB8616D6E90623D6E90A010BF0DA
S214001240F3FF04460D46D6E90823D6E90C010BF059
S214001250EBFF06460F4622462B46204629460CF054
S2140012609BF98046894632463B46304639460CF066
S21400127093F902460B46404649460BF0D7FF41EC31
S214001280100B0DF05DF859EC108BDFF8E0B010EEA7
S214001290102A4B46304639460CF0A8FA0CF054FC9F
S2140012A0CBF8B80142464B46204629460CF09EFA3B
S2140012B00CF04AFC80F00040CBF8BC017CE72A4FDB
S2140012C007EB8617D7E90223204629460BF0ACFF2A
S2140012D004460D4697F938000CF0F4F80022002377
S2140012E00CF0EAFB28B3D7E90423204629460CF085
S2140012F07DFAD7E90A230BF099FF41EC190BB0EE03
S214001300490AF0EE690A0CF0FBFD184C51EC100B84
S2140013100CF01AFCC4F8B801B0EE490AF0EE690AFF
S2140013200CF062FF51EC100B0CF00EFCC4F8BC0184
S21400133042E7204605F100410B4B03EB8616D6E943
S21400134004230CF053FAD6E90A230BF06FFF04A32C
S214001350D3E900230BF06AFF41EC190BCFE700BF7F
S214001360112D4454FB2109405095FF1F48060020CC
S2140013700026013EB301E44AD35C012B00F02F8126
S214001380022B00F07381DFF89883D8ED707A28EE90
S214001390278AD8ED717A68EEA77A37EE888AD8ED74
S2140013A06E7A68EEA78A78EE897A17EE900A0CF0C5
S2140013B09BF804460D46DFF86C93D9E90267CAA38A
S2140013C0D3E90023304639460CF0E6F8CDE90801AB
S2140013D0C7A3D3E90023204629460CF0DDF8DDE953
S2140013E008230BF023FF0CF0AFFBDFEDC87A07EE07
S2140013F0100A67EE277A98ED647A77EE877AC9ED59
S2140014000F7AD8ED65AA98ED42AA3AEE8AAAB0EE0F
S2140014104A0A0CF0B9FDB0EE40BAB0EE4A0A0CF03B
S214001420F3FDD8ED687AD8ED678A68EECB8A98ED3A
S214001430667A20EE070A78EE808A68EEA78A00238E
S21400144089F8E030D8F8A421C9F84C2089F8E130B2
S214001450D8F8A821C9F8502089F8E230C9ED10AABA
S214001460D8F8AC21C9F8542089F8E330C9ED117AD0
S2140014709FEDA77A27EE877AD8ED417A77EEC77A7E
S2140014809FEDA47A67EE877AC9ED167A9AA3D3E918
S2140014900023204629460CF07FF832463B460BF0E8
S2140014A0C5FEC9E902019C480BF0C7F8C0F3C0307E
S2140014B088F8070388F80803002800F04B8101210C
S2140014C096480BF0B4F8964C002684F80963934DC2
S2140014D0022128460BF0ADF884F80A634FF48061C9
S2140014E028460BF0A6F884F80B634FF400612846F4
S2140014F00BF09FF884F80C634FF4805128460BF0ED
S21400150098F884F80D634FF4005128460BF091F8D4
S21400151084F80E634FF4804128460BF08AF884F86E
S2140015200F634FF4004128460BF083F884F81063ED
S214001530042128460BF07DF884F81163082128461C
S2140015400BF077F884F81263102128460BF071F838
S21400155084F81363202128460BF06BF884F8146394
S214001560402128460BF065F884F81563802128464C
S2140015700BF05FF884F816634FF4807128460BF082
S21400158058F884F817634FF4007128460BF051F8AA
S214001590D4F890010BF0A8FF9FED591B41EC100BFF
S2140015A00CF06AFE55EC104B574BD3E9022310EEB5
S2140015B0100A29460CF062FA002840F0D080524FFC
S2140015C00126D7E91223204629460CF057FA0028B0
S2140015D040F0C680013640371F2EF2D1C1E04A4B9C
S2140015E003EB8616D6E90623D6E90A010BF01CFEA5
S2140015F004460D46D6E90823D6E90C010BF014FE86
S21400160006460F4622462B46204629460BF0C4FFC8
S2140016108046894632463B46304639460BF0BCFF8C
S21400162002460B46404649460BF000FE41EC100BC6
S2140016300CF086FE59EC108BDFF8E4B010EE102AA2
S2140016404B46304639460CF0D1F80CF07DFACBF814
S214001650C00142464B46204629460CF0C7F80CF01F
S21400166073FA80F00040CBF8C4018CE6264F07EBF7
S2140016708617D7E90223204629460BF0D5FD0446F7
S2140016800D4697F938000BF01DFF002200230CF0E2
S21400169013FA002848D0D7E90423204629460CF040
S2140016A0A5F8D7E90A230BF0C1FD41EC1A0BB0EE02
S2140016B04A0AF0EE6A0A0CF023FC194C51EC100BA7
S2140016C00CF042FAC4F8C001B0EE4A0AF0EE6A0A1C
S2140016D00CF08AFD51EC100B0CF036FAC4F8C4017D
S2140016E051E600BFAFF3008049CF924B4E81D83F02
S2140016F0AF38171D00C46240AFBC3460C3E4E43F9B
S2140017000E684C35DA4DA1405095FF1F0AD7233C92
S2140017100000C8426F12033A00F10F40C0F00F40BD
S2140017204806002000040020204605F10041CC4B6E
S21400173003EB8616D6E904230CF058F8D6E90A23FC
S2140017400BF074FDC2A3D3E900230BF06FFD41EC50
S2140017501A0BACE70121C3480AF06BFFB3E600267C
S214001760013EB301BE4AD35C012B29D0022B6ED0BA
S214001770BD4BD3F890010BF0B7FE9FEDB71B41ECC5
S214001780100B0CF079FD55EC104BB54BD3E902234A
S21400179010EE100A29460CF071F9002840F0A780D8
S2140017A0AF4F0126D7E91223204629460CF066F9EA
S2140017B0002840F09D80013640371F2EF2D198E079
S2140017C0A74B03EB8616D6E90623D6E90A010BF0EB
S2140017D02BFD04460D46D6E90823D6E90C010BF08E
S2140017E023FD06460F4622462B46204629460BF08A
S2140017F0D3FE8046894632463B46304639460BF095
S214001800CBFE02460B46404649460BF00FFD41EC28
S214001810100B0CF095FD59EC108BDFF84CB210EE67
S214001820102A4B46304639460BF0E0FF0CF08CF998
S214001830CBF80C0142464B46204629460BF0D6FF15
S2140018400CF082F980F00040CBF8100190E7844F4E
S21400185007EB8617D7E90223204629460BF0E4FC5F
S21400186004460D4697F938000BF02CFE00220023A4
S2140018700CF022F928B3D7E90423204629460BF0BA
S214001880B5FFD7E90A230BF0D1FC41EC190BB0EEFB
S214001890490AF0EE690A0CF033FB734C51EC100B5E
S2140018A00CF052F9C4F80C01B0EE490AF0EE690AE1
S2140018B00CF09AFC51EC100B0CF046F9C4F8100131
S2140018C056E7204605F10041654B03EB8616D6E940
S2140018D004230BF08BFFD6E90A230BF0A7FC5CA3CE
S2140018E0D3E900230BF0A2FC41EC190BCFE700264E
S2140018F0013EDFF86C81B70108EB0703D3E902234A
S214001900204629460BF090FC04460D4618F8073092
S214001910012B28D0022B59D0534B186E0BF0E4FD48
S2140019209FED4D1B41EC100B0CF0A6FC55EC104B3C
S2140019304B4BD3E9022310EE100A29460CF09EF812
S214001940002840F09380464F0126D7E91223204610
S21400195029460CF093F8002840F08980013640377D
S2140019601F2EF2D184E03E4B03EB8616D6E906899D
S214001970D6E904230BF03AFFCDE908013A4C42467B
S2140019804B46D6E90A010BF04FFCDDE908230BF0C5
S21400199003FE42464B460BF049FC0CF0D5F8C4F863
S2140019A01401D6E9088942464B46D6E90C010BF0ED
S2140019B03BFCDDE908230BF0EFFD42464B460BF0FF
S2140019C035FC0CF0C1F8C4F81801A5E7244B03EB6E
S2140019D08616D6E9048996F938000BF073FD224680
S2140019E02B460BF0D9FD42464B460BF0FFFED6E9E0
S2140019F00A230BF01BFC41EC190B41EC100B0CF00E
S214001A007FFA194C53EC102B404649460BF0C4FDA8
S214001A10D6E906230BF00AFC0CF096F8C4F814017D
S214001A20B0EE490AF0EE690A0CF0DEFB53EC102B20
S214001A30404649460BF0B0FDD6E908230BF0F6FB0E
S214001A400CF082F8C4F8180166E700BFAFF3008018
S214001A50112D4454FB2109400E684C35DA4DA14047
S214001A605095FF1FC0F00F40480600200026013E9C
S214001A70B301BD4AD35C012B28D0022B6DD0BB4BE3
S214001A80186E0BF031FD9FEDB41B41EC100B0CF003
S214001A90F3FB55EC104BB44BD3E9022310EE100ABF
S214001AA029460BF0EBFF002840F0A780AE4F01263A
S214001AB0D7E91223204629460BF0E0FF002840F025
S214001AC09D80013640371F2EF2D198E0A64B03EBDF
S214001AD08616D6E90623D6E90A010BF0A5FB0446CE
S214001AE00D46D6E90823D6E90C010BF09DFB064609
S214001AF00F4622462B46204629460BF04DFD8046D3
S214001B00894632463B46304639460BF045FD02468E
S214001B100B46404649460BF089FB41EC100B0CF097
S214001B200FFC59EC108BDFF844B210EE102A4B462F
S214001B30304639460BF05AFE0CF006F8CBF81C017E
S214001B4042464B46204629460BF050FE0BF0FCFF63
S214001B5080F00040CBF8200191E7834F07EB861713
S214001B60D7E90223204629460BF05EFB04460D46C5
S214001B7097F938000BF0A6FC002200230BF09CFF20
S214001B8028B3D7E90423204629460BF02FFED7E9D1
S214001B900A230BF04BFB41EC190BB0EE490AF0EEB2
S214001BA0690A0CF0ADF9714C51EC100B0BF0CCFF40
S214001BB0C4F81C01B0EE490AF0EE690A0CF014FBFA
S214001BC051EC100B0BF0C0FFC4F8200157E720467D
S214001BD005F10041644B03EB8616D6E904230BF0AF
S214001BE005FED6E90A230BF021FB5DA3D3E900230B
S214001BF00BF01CFB41EC190BCFE70026013EDFF88B
S214001C006881B70108EB0703D3E90223204629467B
S214001C100BF00AFB04460D4618F80730012B28D0B7
S214001C20022B59D0514B186F0BF05EFC9FED4A1BF0
S214001C3041EC100B0CF020FB55EC104B4A4BD3E953
S214001C40022310EE100A29460BF018FF002840F079
S214001C508F80454F0126D7E91223204629460BF0F0
S214001C600DFF002840F08580013640371F2EF2D148
S214001C7080E03D4B03EB8616D6E90689D6E90423B9
S214001C800BF0B4FDCDE90801384C42464B46D6E988
S214001C900A010BF0C9FADDE908230BF07DFC424689
S214001CA04B460BF0C3FA0BF04FFFC4F82401D6E9FD
S214001CB0088942464B46D6E90C010BF0B5FADDE939
S214001CC008230BF069FC42464B460BF0AFFA0BF0CC
S214001CD03BFFC4F82801A5E7234B03EB8616D6E99D
S214001CE0048996F938000BF0EDFB22462B460BF0E4
S214001CF053FC42464B460BF079FDD6E90A230BF01F
S214001D0095FA41EC190B41EC100B0CF0F9F8174C56
S214001D1053EC102B404649460BF03EFCD6E9062312
S214001D200BF084FA0BF010FFC4F82401B0EE490A59
S214001D30F0EE690A0CF058FA53EC102B4046494670
S214001D400BF02AFCD6E908230BF070FA0BF0FCFE29
S214001D50C4F8280166E700BF0E684C35DA4DA1408E
S214001D60112D4454FB2109405095FF1F48060020C2
S214001D700026013EB301BE4AD35C012B28D0022BBD
S214001D806DD0BC4B186F0BF0AFFB9FEDB51B41EC55
S214001D90100B0CF071FA55EC104BB54BD3E902233F
S214001DA010EE100A29460BF069FE002840F0A780C6
S214001DB0AF4F0126D7E91223204629460BF05EFED8
S214001DC0002840F09D80013640371F2EF2D198E063
S214001DD0A74B03EB8616D6E90623D6E90A010BF0D5
S214001DE023FA04460D46D6E90823D6E90C010BF083
S214001DF01BFA06460F4622462B46204629460BF07F
S214001E00CBFB8046894632463B46304639460BF089
S214001E10C3FB02460B46404649460BF007FA41EC28
S214001E20100B0CF08DFA59EC108BDFF848B210EE60
S214001E30102A4B46304639460BF0D8FC0BF084FE91
S214001E40CBF82C0142464B46204629460BF0CEFCEA
S214001E500BF07AFE80F00040CBF8300191E7844F1B
S214001E6007EB8617D7E90223204629460BF0DCF954
S214001E7004460D4697F938000BF024FB0022002399
S214001E800BF01AFE28B3D7E90423204629460BF0A8
S214001E90ADFCD7E90A230BF0C9F941EC190BB0EEFB
S214001EA0490AF0EE690A0CF02BF8724C51EC100B54
S214001EB00BF04AFEC4F82C01B0EE490AF0EE690AAF
S214001EC00CF092F951EC100B0BF03EFEC4F830010A
S214001ED057E7204605F10041654B03EB8616D6E929
S214001EE004230BF083FCD6E90A230BF09FF95EA3CC
S214001EF0D3E900230BF09AF941EC190BCFE7002643
S214001F00013EDFF86C81B70108EB0703D3E9022333
S214001F10204629460BF088F904460D4618F8073087
S214001F20012B29D0022B5AD0524BD3F880000BF04D
S214001F30DBFA9FED4B1B41EC100B0CF09DF955ECBA
S214001F40104B4B4BD3E9022310EE100A29460BF038
S214001F5095FD002840F09080454F0126D7E91223D2
S214001F60204629460BF08AFD002840F08680013680
S214001F7040371F2EF2D181E03D4B03EB8616D6E9A3
S214001F800689D6E904230BF031FCCDE90801394C6B
S214001F9042464B46D6E90A010BF046F9DDE908232E
S214001FA00BF0FAFA42464B460BF040F90BF0CCFD2C
S214001FB0C4F83401D6E9088942464B46D6E90C01F6
S214001FC00BF032F9DDE908230BF0E6FA42464B4601
S214001FD00BF02CF90BF0B8FDC4F83801A4E7244B3D
S214001FE003EB8616D6E9048996F938000BF06AFAF0
S214001FF022462B460BF0D0FA42464B460BF0F6FB39
S214002000D6E90A230BF012F941EC190B41EC100B40
S2140020100BF076FF174C53EC102B404649460BF05E
S214002020BBFAD6E906230BF001F90BF08DFDC4F8D8
S2140020303401B0EE490AF0EE690A0CF0D5F853EC1C
S214002040102B404649460BF0A7FAD6E908230BF0BA
S214002050EDF80BF079FDC4F8380165E7AFF30080C2
S2140020600E684C35DA4DA140112D4454FB21094031
S2140020705095FF1F480600200026013EB301BE4AC9
S214002080D35C012B29D0022B6ED0BC4BD3F880003A
S2140020900BF02AFA9FEDB41B41EC100B0CF0ECF899
S2140020A055EC104BB44BD3E9022310EE100A294628
S2140020B00BF0E4FC002840F0A780AF4F0126D7E9DC
S2140020C01223204629460BF0D9FC002840F09D80BC
S2140020D0013640371F2EF2D198E0A74B03EB861649
S2140020E0D6E90623D6E90A010BF09EF804460D460B
S2140020F0D6E90823D6E90C010BF096F806460F46FB
S21400210022462B46204629460BF046FA804689464C
S21400211032463B46304639460BF03EFA02460B4600
S214002120404649460BF082F841EC100B0CF008F9DB
S21400213059EC108BDFF844B210EE102A4B463046AE
S21400214039460BF053FB0BF0FFFCCBF83C01424644
S2140021504B46204629460BF049FB0BF0F5FC80F079
S2140021600040CBF8400190E7834F07EB8617D7E98E
S2140021700223204629460BF057F804460D4697F9E9
S21400218038000BF09FF9002200230BF095FC28B3D3
S214002190D7E90423204629460BF028FBD7E90A2373
S2140021A00BF044F841EC190BB0EE490AF0EE690A60
S2140021B00BF0A6FE714C51EC100B0BF0C5FCC4F8EE
S2140021C03C01B0EE490AF0EE690A0CF00DF851EC4D
S2140021D0100B0BF0B9FCC4F8400156E7204605F199
S2140021E00041654B03EB8616D6E904230BF0FEFA96
S2140021F0D6E90A230BF01AF85DA3D3E900230BF007
S21400220015F841EC190BCFE70026013EDFF8688190
S214002210B70108EB0703D3E90223204629460BF053
S21400222003F804460D4618F80730012B29D0022B78
S2140022305AD0524BD3F890000BF056F99FED4A1B3C
S21400224041EC100B0CF018F855EC104B4A4BD3E948
S214002250022310EE100A29460BF010FC002840F06E
S2140022608F80454F0126D7E91223204629460BF0DA
S21400227005FC002840F08580013640371F2EF2D13D
S21400228080E03D4B03EB8616D6E90689D6E90423A3
S2140022900BF0ACFACDE90801384C42464B46D6E97D
S2140022A00A010AF0C1FFDDE908230BF075F9424682
S2140022B04B460AF0BBFF0BF047FCC4F84401D6E9D6
S2140022C0088942464B46D6E90C010AF0ADFFDDE927
S2140022D008230BF061F942464B460AF0A7FF0BF0C5
S2140022E033FCC4F84801A4E7234B03EB8616D6E973
S2140022F0048996F938000BF0E5F822462B460BF0D9
S2140023004BF942464B460BF071FAD6E90A230AF01F
S2140023108DFF41EC190B41EC100B0BF0F1FD174C47
S21400232053EC102B404649460BF036F9D6E9062307
S2140023300AF07CFF0BF008FCC4F84401B0EE490A32
S214002340F0EE690A0BF050FF53EC102B404649465E
S2140023500BF022F9D6E908230AF068FF0BF0F4FB2D
S214002360C4F8480165E700BF0E684C35DA4DA14059
S214002370112D4454FB2109405095FF1F48060020AC
S2140023800026013EB301BE4AD35C012B29D0022BA6
S2140023906ED0BC4BD3F890000BF0A6F89FEDB41BA4
S2140023A041EC100B0BF068FF55EC104BB44BD3E927
S2140023B0022310EE100A29460BF060FB002840F0BE
S2140023C0A780AF4F0126D7E91223204629460BF0F7
S2140023D055FB002840F09D80013640371F2EF2D175
S2140023E098E0A74B03EB8616D6E90623D6E90A0142
S2140023F00AF01AFF04460D46D6E90823D6E90C0172
S2140024000AF012FF06460F4622462B46204629466D
S2140024100BF0C2F88046894632463B46304639467F
S2140024200BF0BAF802460B46404649460AF0FEFE56
S21400243041EC100B0BF084FF59EC108BDFF844B224
S21400244010EE102A4B46304639460BF0CFF90BF00B
S2140024507BFBCBF84C0142464B46204629460BF008
S214002460C5F90BF071FB80F00040CBF8500190E707
S214002470834F07EB8617D7E90223204629460AF042
S214002480D3FE04460D4697F938000BF01BF80022E1
S21400249000230BF011FB28B3D7E904232046294676
S2140024A00BF0A4F9D7E90A230AF0C0FE41EC190B99
S2140024B0B0EE490AF0EE690A0BF022FD714C51ECC1
S2140024C0100B0BF041FBC4F84C01B0EE490AF0EEDD
S2140024D0690A0BF089FE51EC100B0BF035FBC4F8C3
S2140024E0500156E7204605F10041654B03EB861682
S2140024F0D6E904230BF07AF9D6E90A230AF096FE09
S2140025005DA3D3E900230AF091FE41EC190BCFE757
S2140025100026013EDFF86881B70108EB0703D3E920
S2140025200223204629460AF07FFE04460D4618F888
S2140025300730012B29D0022B5AD0524BD3F8A000DB
S2140025400AF0D2FF9FED4A1B41EC100B0BF094FEF5
S21400255055EC104B4A4BD3E9022310EE100A2946DD
S2140025600BF08CFA002840F08F80454F0126D7E903
S2140025701223204629460BF081FA002840F0858079
S214002580013640371F2EF2D180E03D4B03EB861616
S214002590D6E90689D6E904230BF028F9CDE9080127
S2140025A0384C42464B46D6E90A010AF03DFEDDE9C4
S2140025B008230AF0F1FF42464B460AF037FE0BF0BE
S2140025C0C3FAC4F85401D6E9088942464B46D6E910
S2140025D00C010AF029FEDDE908230AF0DDFF424679
S2140025E04B460AF023FE0BF0AFFAC4F85801A4E7F6
S2140025F0234B03EB8616D6E9048996F938000AF0D1
S21400260061FF22462B460AF0C7FF42464B460BF0B8
S214002610EDF8D6E90A230AF009FE41EC190B41EC65
S214002620100B0BF06DFC174C53EC102B4046494634
S2140026300AF0B2FFD6E906230AF0F8FD0BF084FA9A
S214002640C4F85401B0EE490AF0EE690A0BF0CCFD6E
S21400265053EC102B404649460AF09EFFD6E9082365
S2140026600AF0E4FD0BF070FAC4F8580165E700BF05
S2140026700E684C35DA4DA140112D4454FB2109401B
S2140026805095FF1F480600200026013EB301BE4AB3
S214002690D35C012B29D0022B6ED0BC4BD3F8A00004
S2140026A00AF022FF9FEDB41B41EC100B0BF0E4FD8B
S2140026B055EC104BB44BD3E9022310EE100A294612
S2140026C00BF0DCF9002840F0A780AF4F0126D7E9D1
S2140026D01223204629460BF0D1F9002840F09D80B1
S2140026E0013640371F2EF2D198E0A74B03EB861633
S2140026F0D6E90623D6E90A010AF096FD04460D46F9
S214002700D6E90823D6E90C010AF08EFD06460F46E8
S21400271022462B46204629460AF03EFF804689463A
S21400272032463B46304639460AF036FF02460B46EE
S214002730404649460AF07AFD41EC100B0BF000FECD
S21400274059EC108BDFF844B210EE102A4B46304698
S21400275039460BF04BF80BF0F7F9CBF85C01424624
S2140027604B46204629460BF041F80BF0EDF980F079
S2140027700040CBF8600190E7834F07EB8617D7E958
S2140027800223204629460AF04FFD04460D4697F9D7
S21400279038000AF097FE002200230BF08DF928B3CC
S2140027A0D7E90423204629460BF020F8D7E90A2368
S2140027B00AF03CFD41EC190BB0EE490AF0EE690A4E
S2140027C00BF09EFB714C51EC100B0BF0BDF9C4F8EE
S2140027D05C01B0EE490AF0EE690A0BF005FD51EC1B
S2140027E0100B0BF0B1F9C4F8600156E7204605F16E
S2140027F00041654B03EB8616D6E904230AF0F6FF84
S214002800D6E90A230AF012FD5DA3D3E900230AF0F5
S2140028100DFD41EC190BCFE70026013EDFF868817D
S214002820B70108EB0703D3E90223204629460AF03E
S214002830FBFC04460D4618F80730012B29D0022B66
S2140028405AD0524BD3F8B0000AF04EFE9FED4A1B0A
S21400285041EC100B0BF010FD55EC104B4A4BD3E936
S214002860022310EE100A29460BF008F9002840F063
S2140028708F80454F0126D7E91223204629460BF0C4
S214002880FDF8002840F08580013640371F2EF2D133
S21400289080E03D4B03EB8616D6E90689D6E904238D
S2140028A00AF0A4FFCDE90801384C42464B46D6E96B
S2140028B00A010AF0B9FCDDE908230AF06DFE42467B
S2140028C04B460AF0B3FC0BF03FF9C4F86401D6E9B6
S2140028D0088942464B46D6E90C010AF0A5FCDDE91C
S2140028E008230AF059FE42464B460AF09FFC0BF0BE
S2140028F02BF9C4F86801A4E7234B03EB8616D6E948
S214002900048996F938000AF0DDFD22462B460AF0C7
S21400291043FE42464B460AF069FFD6E90A230AF010
S21400292085FC41EC190B41EC100B0BF0E9FA174C47
S21400293053EC102B404649460AF02EFED6E90623F5
S2140029400AF074FC0BF000F9C4F86401B0EE490A12
S214002950F0EE690A0BF048FC53EC102B4046494653
S2140029600AF01AFED6E908230AF060FC0BF0ECF831
S214002970C4F8680165E700BF0E684C35DA4DA14023
S214002980112D4454FB2109405095FF1F4806002096
S2140029900026013EB301664AD35C012B29D0022BE8
S2140029A06ED0644BD3F8B0000AF09EFD9FED5C1B22
S2140029B041EC100B0BF060FC55EC104B5C4BD3E974
S2140029C0022310EE100A29460BF058F8002840F0B3
S2140029D0B380574F0126D7E91223204629460BF02D
S2140029E04DF8002840F0A980013640371F2EF2D15E
S2140029F0A4E04F4B03EB8616D6E90623D6E90A0178
S214002A000AF012FC04460D46D6E90823D6E90C0166
S214002A100AF00AFC06460F4622462B462046294662
S214002A200AF0BAFD8046894632463B46304639466D
S214002A300AF0B2FD02460B46404649460AF0F6FB4F
S214002A4041EC100B0BF07CFC59EC108BDFF8E4B07B
S214002A5010EE102A4B46304639460AF0C7FE0BF0F9
S214002A6073F8CBF86C0142464B46204629460AF0DE
S214002A70BDFE0BF069F880F00040CBF8700190E7DF
S214002A802B4F07EB8617D7E90223204629460AF084
S214002A90CBFB04460D4697F938000AF013FD0022DA
S214002AA000230BF009F828B3D7E90423204629466B
S214002AB00AF09CFED7E90A230AF0B8FB41EC190B92
S214002AC0B0EE490AF0EE690A0BF01AFA194C51EC0E
S214002AD0100B0BF039F8C4F86C01B0EE490AF0EEB2
S214002AE0690A0BF081FB51EC100B0BF02DF8C4F8C3
S214002AF0700156E7204605F100410D4B03EB8616A4
S214002B00D6E904230AF072FED6E90A230AF08EFB01
S214002B1005A3D3E900230AF089FB41EC190BCFE7A4
S214002B200E684C35DA4DA140112D4454FB21094066
S214002B305095FF1F480600200026013EDFF8B082B1
S214002B40B70108EB0703D3E90223204629460AF01B
S214002B506BFB04460D4618F80730012B00F0FF818A
S214002B60022B00F02F82964DD5F89031C5F87C31B7
S214002B7085ED608A05F2ED2705F5BE7603CEC5F82D
S214002B80ED02C5F8F11200248DF830404FF0080829
S214002B90CDF834808DF838408DF839408DF83A40BD
S214002BA08DF83B402D230CAA2146204604F070FFEA
S214002BB000972D230CAA2146204604F0E1FFD5F805
S214002BC09431C5F88431C5ED628A05F2F52703CE47
S214002BD0C5F8F502C5F8F9128DF83040CDF8348006
S214002BE08DF838408DF839408DF83A408DF83B40E6
S214002BF02E230CAA0121204604F04AFF00972E231C
S214002C000CAA0121204604F0BBFF95F80733002BE1
S214002C1000F023826B4B93F8E930002B40F01182D2
S214002C200122684B83F8E9202046DFF89881664B3E
S214002C305B68C8F86030002388F8E8300AF032FC99
S214002C4059A3D3E900230AF0A7FC04460D46DFED9E
S214002C505F7A68EE277A17EE900A0AF045FC22465D
S214002C602B460AF0C3FD41EC1A0BD8E904230AF000
S214002C70DBFA06460F46DFED567A68EE277A17EE41
S214002C80900A0AF031FC02460B46304639460AF0F6
S214002C90CDFA06460F46DFF82891D9F808010AF063
S214002CA023FC02460B46304639460AF0BDFA064675
S214002CB00F463FA3D3E900230AF06EFC22462B46BC
S214002CC00AF094FD41EC190BD8E906230AF0ACFA99
S214002CD004460D4638A3D3E90023304639460AF0A9
S214002CE05BFC02460B46204629460AF09FFA0AF08D
S214002CF02BFFC9F8C80188ED04AB88ED069B304B66
S214002D00D3ED427A93ED687A67EE877A9FED317A53
S214002D1067EE877A9FED307A67EE877A9FED2F7A97
S214002D2077EE877A93ED727ADFED2D6A27EE267AB4
S214002D3077EEC77A9FED2B7A67EE877AB6EE007A43
S214002D4077EE877A9FED287AF4EEC77AF1EE10FADE
S214002D5040F38E8183ED637A194CD4ED637A9FED50
S214002D60237A67EE877AFCEEE77A01230193002048
S214002D70009017EE903A9BB20246014607F01AF909
S214002D80104BD4F890211A6283ED098AD4F8942166
S214002D909A62C3ED0B8AA3F87CA00B4B1B7B002B1F
S214002DA000F0D48026E000BF7B14AE47E17A843F73
S214002DB00000000000A064400000000000069740ED
S214002DC04806002000040020400100203333B33DB5
S214002DD0666656410000C842CDCC4C3E000000005E
S214002DE0CDCC4C3DA5C7A5395C8F423F00000047BF
S214002DF05095FF1FD4ED437A68EE277A94ED457A16
S214002E0077EE877AC4ED027AD4ED447A28EE278AE4
S214002E10D4ED467A38EE278A84ED038A2261D4F808
S214002E20A0216261D4ED197A94ED477A27EE877A6D
S214002E30D4ED496A37EE267A84ED067A94ED487A20
S214002E4067EE877A94ED4A7A77EE877AC4ED077A4A
S214002E50A26E2262D4ED1D7A94ED4B7A27EE877A25
S214002E60D4ED4D6A37EE267A84ED097A94ED4C7AE5
S214002E7067EE877A94ED4E7A77EE877AC4ED0A7A13
S214002E80A26FE262D4ED217A94ED4F7A27EE877A2C
S214002E90D4ED516A37EE267A84ED0C7A94ED507AAA
S214002EA067EE877A94ED527A77EE877AC4ED0D7ADC
S214002EB0D4F88820A263D4ED257A94ED537A27EED1
S214002EC0877AD4ED556A37EE267A84ED0F7A94ED3C
S214002ED0547A67EE877A94ED567A77EE877AC4ED61
S214002EE0107AD4F898206264D4ED297A94ED577A53
S214002EF027EE877AD4ED596A37EE267A84ED127A71
S214002F0094ED587A67EE877A94ED5A7A77EE877A58
S214002F10C4ED137AD4F8A8202265D4ED2D7A94ED6A
S214002F205B7A27EE877AD4ED5D6A37EE267A84EDF3
S214002F30157A94ED5C7A67EE877A94ED5E7A77EE92
S214002F40877AC4ED167AD4F8B820E265504A5368FA
S214002F500133536013B0BDEC088BBDE8F08F4D4BCA
S214002F6003EB8616D6E90689D6E904230AF03EFC6A
S214002F70CDE90801484C42464B46D6E90A010AF01C
S214002F8053F9DDE908230AF007FB42464B460AF0F0
S214002F904DF90AF0D9FDC4F87401D6E9088942460D
S214002FA04B46D6E90C010AF03FF9DDE908230AF0A2
S214002FB0F3FA42464B460AF039F90AF0C5FDC4F862
S214002FC07801D0E5334B03EB8616D6E9048996F9EB
S214002FD038000AF077FA22462B460AF0DDFA424617
S214002FE04B460AF003FCD6E90A230AF01FF941EC27
S214002FF0190B41EC100B0AF083FF274C53EC102BF7
S214003000404649460AF0C8FAD6E906230AF00EF901
S2140030100AF09AFDC4F87401B0EE490AF0EE690AA7
S2140030200BF0E2F853EC102B404649460AF0B4FA8F
S214003030D6E908230AF0FAF80AF086FDC4F8780103
S21400304091E5164B93F8E8302BB9114B5868134BA3
S2140030501B6EC01AE9E50020E7E5104B93F8E9304F
S214003060002B3FF44CAE00220C4B83F8E92046E6DA
S2140030709FED0B7AF4EEC77AF1EE10FA03D4064B06
S214003080C3ED637A68E6074A034BC3F88C2163E610
S214003090400100205095FF1F480600200004002035
S2140030A08FC2753E8FC2753E70B50F4D582632469C
S2140030B0A5F28D2128460CF0DBFF0C4C94F87E30F0
S2140030C0B3FA83F35B0984F87E3084F8E630732322
S2140030D084F87F303246294604F180000CF0C8FFA1
S2140030E0652384F8D83070BDDD0800200004002079
S2140030F008B5012806D0022807D000B108BDFDF7A4
S214003100BDFA08BDFDF7A2FB08BDFFF7CDFFF5E74A
S2140031102DE9F04F93B0CE4D04AC2E460FCE0FC423
S2140031200FCE0FC40FCE0FC496E8030084E803004A
S214003130C84BB3F86270BF0007F1804707F5CA278F
S2140031403B6843F080433B60DFF820930522042170
S214003150484609F0F8F93B6843F080433B60052297
S2140031601146484609F0EFF9BA4BB3F868309B00B1
S21400317003F1804303F5CA231A6842F080421A60BE
S21400318004AC2246B449002004F044FBB14BB3F82B
S2140031905E309B0003F1804303F5CA231A6842F0B1
S2140031A080421A60AD498A6922F4E06242F40072F5
S2140031B08A611A6842F080421A60CB6923F4E063A1
S2140031C043F40073CB61A34BB3F85A804FEA8808E8
S2140031D008F1804808F5CA28D8F8003043F0804344
S2140031E0C8F80030DFF888B2DBF8183023F4E06364
S2140031F043F4C063CBF81830D8F8003043F080436F
S214003200C8F80030DBF81C3023F4E06343F4C063F6
S214003210CBF81C308F4BB3F89630914A4FF08C4168
S21400322042F823109B0003F1804303F5CA231A6873
S21400323042F080421A60383595E8070084E80700B7
S21400324022468849012008F02BFC002286491046B9
S21400325004F06EFF3B6843F080433B600026A660A8
S214003260E6606661CDF810900E23059301258DF873
S2140032701B508DF81E50DFF8FCA1CDF820A021468B
S214003280284609F033F93B6843F080433B60A6606C
S214003290E6606661CDF81090062305938DF81B5006
S2140032A08DF81E50CDF820A02146284609F01EF9BC
S2140032B03B6843F080433B60A660E6606661CDF8FD
S2140032C01090072305938DF81B508DF81E50CDF8EF
S2140032D020A02146284609F009F93B6843F08043C0
S2140032E03B60A660E6606661CDF810900823059303
S2140032F08DF81B508DF81E50CDF820A0214628468C
S21400330009F0F4F83B6843F080433B60A660E66053
S2140033106661CDF81090092305938DF81B508DF843
S2140033201E50CDF820A02146284609F0DFF83B685D
S21400333043F080433B60A660E6606661CDF810907F
S2140033400A2305938DF81B508DF81E50CDF820A04B
S2140033502146284609F0CAF83B6843F080433B60A4
S214003360A660E6606661CDF810900B2305938DF895
S2140033701B508DF81E50CDF820A02146284609F097
S214003380B5F83B6843F080433B60A660E660666144
S214003390CDF810900C2305938DF81B508DF81E5019
S2140033A0CDF820A02146284609F0A0F83B6843F057
S2140033B080433B60A660E6606661CDF810900D2302
S2140033C005938DF81B508DF81E50CDF820A0214691
S2140033D0284609F08BF8D8F8003043F08043C8F848
S2140033E00030DBF8343023F4E06343F4C063CBF8FA
S2140033F03430D8F8003043F08043C8F80030DBF8AB
S214003400303023F4E06343F4C063CBF830300496E6
S2140034106660A6604FF6FF73ADF8143021460220B2
S21400342007F0D0F93B6843F080433B60A660E66057
S2140034306661CDF810904FF00F09CDF814908DF816
S2140034401B508DF81E50CDF820A0214614E000BF7A
S21400345078010100F00201006009002000B004407D
S214003460005006401C0000206D6F000000D0044095
S2140034700090044000F10F40284609F037F8CB4B87
S214003480B3F86070BF0007F1804707F5CA273B68AE
S21400349043F080433B606660A660E6606661DFF8E6
S2140034A014A3CDF810A08DF81B508DF81E50DFF831
S2140034B00883CDF820808DF824502146284609F050
S2140034C015F83B6843F080433B60A660E6606661A3
S2140034D0CDF810A005958DF81B508DF81E50CDF830
S2140034E020808DF824502146284608F0FFFF3B68D0
S2140034F043F080433B60A660E6606661CDF810A0AE
S2140035000A2305938DF81B508DF81E50CDF82080A9
S2140035108DF824502146284608F0E8FF3B6843F023
S21400352080433B60A660E6606661CDF810A00B2382
S21400353005938DF81B508DF81E50CDF820808DF821
S21400354024502146284608F0D1FF3B6843F08043CC
S2140035503B60A660E6606661CDF810A00C2305937C
S2140035608DF81B508DF81E50CDF820808DF8245015
S2140035702146284608F0BAFF3B6843F080433B608C
S214003580A660E6606661CDF810A00D2305938DF861
S2140035901B508DF81E50CDF820808DF82450214603
S2140035A0284608F0A3FF3B6843F080433B60A660D4
S2140035B0E6606661CDF810A00E2305938DF81B50CB
S2140035C08DF81E50CDF820808DF8245021462846D0
S2140035D008F08CFF3B6843F080433B60A660E660E3
S2140035E06661CDF810A0CDF814908DF81B508DF8BC
S2140035F01E50CDF820808DF824502146284608F02D
S21400360075FF3B6843F080433B60A660E6606661FA
S214003610CDF810A04FF00209CDF814908DF81B508D
S2140036208DF81E50CDF820808DF82450214628466F
S21400363008F05CFF3B6843F080433B60A660E660B2
S2140036406661CDF810A0032305938DF81B508DF806
S2140036501E50CDF820808DF824502146284608F0CC
S21400366045FF3B6843F080433B60A660E6606661CA
S214003670CDF810A0042305938DF81B508DF81E502E
S214003680CDF820808DF824502146284608F02EFFDD
S2140036903B6843F080433B60A660E6606661CDF819
S2140036A010A0052305938DF81B508DF81E50CDF8FD
S2140036B020808DF824502146284608F017FF3B68E6
S2140036C043F080433B60A660E6606661CDF810A0DC
S2140036D0062305938DF81B508DF81E50CDF82080DC
S2140036E08DF824502146284608F000FF3B6843F03A
S2140036F080433B60A660E6606661CDF810A00723B5
S21400370005938DF81B508DF81E50CDF820808DF84F
S21400371024502146284608F0E9FE3B6843F08043E3
S2140037203B60A660E6606661CDF810A008230593AE
S2140037308DF81B508DF81E50CDF820808DF8245043
S2140037402146284608F0D2FE3B6843F080433B60A3
S214003750A660E6606661CDF810A0092305938DF893
S2140037601B508DF81E50CDF820808DF82450214631
S214003770284608F0BBFE0D4BB3F85C3003FA09F39D
S21400378003F1804303F5CA231A6842F080421A60A8
S214003790074A136B23F4E06343F400731363034B8D
S2140037A0B3F8783002F5D83208E000BFF002010026
S2140037B000A0044000C00440C0F00F404FF08C4111
S2140037C042F8231003FA09F303F1804303F5CA23F2
S2140037D01A6842F080421A60E34AE449304605F02F
S2140037E0FFFEE349304606F067FC32462946E148CC
S2140037F005F0AFFF8DF81060082305938DF818606C
S2140038008DF819608DF81A608DF81B604B232246E0
S2140038104946304604F0CEF933464A4631463046ED
S21400382003F09AFF34468DF81060082505958DF84C
S21400383018608DF819608DF81A608DF81B604C239F
S21400384004AA0321304604F0B5F933460322314674
S214003850304603F081FF8DF8106005958DF81860EE
S2140038608DF819608DF81A608DF81B60412304AA44
S2140038700C21304604F09EF933460C223146304681
S21400388003F06AFF8DF8106005958DF818608DF8C6
S21400389019608DF81A608DF81B60422304AA0D216A
S2140038A0304604F087F933460D223146304603F0A1
S2140038B053FF8DF8106005958DF818608DF8196027
S2140038C08DF81A608DF81B60692304AA0E21304615
S2140038D004F070F933460E223146304603F03CFFC2
S2140038E08DF8106005958DF818608DF819608DF8C4
S2140038F01A608DF81B606A2304AA0F21304604F074
S21400390059F933460F223146304603F025FF8DF82D
S214003910106005958DF818608DF819608DF81A609E
S2140039208DF81B600F2304AA1021304604F042F9DC
S214003930334610223146304603F00EFF8DF81060F5
S21400394005958DF818608DF819608DF81A608DF859
S2140039501B6010230DEB03021121304604F02AF9F8
S214003960334611223146304603F0F6FE8DF81060DD
S21400397005958DF818608DF819608DF81A608DF829
S2140039801B60192304AA0421304604F013F93346B9
S21400399004223146304603F0DFFE8DF810600595B0
S2140039A08DF818608DF819608DF81A608DF81B6018
S2140039B01A2304AA0521304604F0FCF833460522F3
S2140039C03146304603F0C8FE8DF8106005958DF838
S2140039D018608DF819608DF81A608DF81B60232327
S2140039E004AA0621304604F0E5F83346062231469E
S2140039F0304603F0B1FE8DF8106005958DF818601E
S214003A008DF819608DF81A608DF81B60242304AABF
S214003A100721304604F0CEF83346072231463046BA
S214003A2003F09AFE8DF8106005958DF818608DF8F5
S214003A3019608DF81A608DF81B602D2304AA29469C
S214003A40304604F0B7F833462A463146304603F08F
S214003A5083FE8DF8106005958DF818608DF8196056
S214003A608DF81A608DF81B602E2304AA09213046B3
S214003A7004F0A0F8334609223146304603F06CFEC7
S214003A808DF8106005958DF818608DF819608DF822
S214003A901A608DF81B60372304AA0A21304604F00A
S214003AA089F833460A223146304603F055FE8DF833
S214003AB0106005958DF818608DF819608DF81A60FD
S214003AC08DF81B60382304AA0B21304604F072F8E8
S214003AD033460B223146304603F03EFE264FB7F8FB
S214003AE05C3003FA09F303F1804303F5CA231A682E
S214003AF042F080421A60214A136A23F4E06343F4DA
S214003B0000731362B7F87E301D4D4FF08C4645F8B3
S214003B10236003FA09F303F1804303F5CA231A6806
S214003B2042F080421A60174A1749032005F058FDF4
S214003B301649032006F0C0FA22460121144805F073
S214003B4008FE04AB134A07CA03C323F8022B120C61
S214003B501A70029403948DF804408DF80540B7F867
S214003B60821001FA09F317E0700B0020A094FF1FE3
S214003B70B494FF1F00800340F002010000A0044040
S214003B8000500640D00B0020E894FF1FFC94FF1F57
S214003B9000600240BC01010003F1804303F5CA2324
S214003BA01A6822F080421A6045F821601A6842F0CE
S214003BB080421A60204600F08DFB04A9204600F0E3
S214003BC059F92146204600F063FB02A9204600F082
S214003BD092FA01A9204600F0DFFA0322084B1A7079
S214003BE0084B012283F8E72083F8E02083F8E120E1
S214003BF083F8E22083F8E32013B0BDE8F08F00BF1F
S214003C00740A002000040020704700BF70B490EDD6
S214003C10017AD0ED007AB4EEE77AF1EE10FA1CDC09
S214003C20C2ED007A0C681C6000F1080400F11C0666
S214003C30251AB4EC017AD0ED007AB4EEE77AF1EE0C
S214003C4010FA0BDCC2ED007A0D681D60B442EFD1AD
S214003C50041D043100F11C0509E0042582ED007AFC
S214003C600D442C681C60F3E70431A54214D0F4EC34
S214003C70017A90ED007AF4EEC77AF1EE10FAF3DDF1
S214003C8092ED007AF4EEC77AF1EE10FAECD5C2EDBA
S214003C90007A0E681E60E7E7D2ED007A90ED007AB3
S214003CA077EEC77A039BC3ED007A70BC70470000BE
S214003CB02DE9F0472DED068B04468A4615469846B4
S214003CC0006809F011FC41EC100B0AF08DFA002296
S214003CD05E4B51EC100B09F05FFC06460F46DAF817
S214003CE0000009F001FC02460B463046394609F052
S214003CF053FC09F029FF0F9B1860206809F0F4FBBD
S214003D0041EC190B41EC100B0AF06EFA57EC106BF5
S214003D10286809F0E9FB41EC180B41EC100B0AF09F
S214003D2063FAB0EE40AAF0EE60AAB0EE490AF0EEF2
S214003D30690A0AF0E5F8B0EE409AF0EE609AB0EE46
S214003D40480AF0EE680A0AF0DBF8B0EE408AF0EEB9
S214003D50608A00223E4B3046394609F01DFC53EC83
S214003D601A2B09F019FC06460F4653EC182B51EC9B
S214003D70190B09F011FC02460B463046394609F08D
S214003D8055FA06460F46DAF8000009F0ADFB024683
S214003D900B463046394609F0FFFB09F0D5FEC8F859
S214003DA00000206809F0A0FB41EC180B41EC100B5A
S214003DB00AF01AFAB0EE40AAF0EE60AA286809F0F7
S214003DC093FB41EC190B41EC100B0AF099F859ECF7
S214003DD0108BB0EE480AF0EE680A0AF091F855EC3F
S214003DE0104BB0EE490AF0EE690A0AF0FDF957ECFE
S214003DF0106B0022174B51EC1A0B09F0CDFB424614
S214003E004B4609F0C9FB8046894632463B4620466B
S214003E10294609F0C1FB02460B464046494609F0D2
S214003E2005FA04460D46DAF8000009F05DFB024686
S214003E300B462046294609F0AFFB09F085FE0E9B8F
S214003E401860BDEC068BBDE8F08700BF0000E43FBD
S214003E500000E0BF0000E03F002303700C22427029
S214003E608370C370037143718371C37103724372AD
S214003E708372704770B584B006460D465D4B53F8A6
S214003E80204041238DF80C3042238DF80D3004A9D4
S214003E90002341F8083D04AB034413F8040C01F07A
S214003EA022FC2B78029ADA400292226C22F0600200
S214003EB05B0103F06003134323646B78002B08BF99
S214003EC00123626C22F0FF0213436364226C22F02B
S214003ED00C02AB789B0003F00C0313432364226CA4
S214003EE022F00302EB7803F0030313432364D4F8B1
S214003EF0902022F040022B799B0103F040031343ED
S214003F00C4F890306B79302200924FF44052019200
S214003F10394A926904A901EB860151F8101C22EA7D
S214003F200102002E43D0012E4FD0334B9A61AA795E
S214003F30012100914FF4807101919B6904A901EB66
S214003F40860151F8101C23EA0103002E39D0012EF9
S214003F5045D0294A9361D4F8903023F00403EA79D7
S214003F60002A14BF042200221343C4F89030D4F869
S214003F70902022F003022B7A03F003031343C4F8C5
S214003F809030D4F8943023F008036A7A002A14BFDD
S214003F90082200221343C4F8943036B9AB7A1BBB10
S214003FA0154A536823F40023536004B070BD1B0108
S214003FB003F03003134310498B61AA798B6923F011
S214003FC0010302F001021343C3E71B0303F440534B
S214003FD0134309498B61AA798B6923F48073120213
S214003FE002F480721343B4E7034A536843F4002391
S214003FF05360DAE7E80101000080044030B484B082
S214004000374B53F820301A6CC2F341120A705A6CC0
S2140040104A701A6CC2F38102012A56D0022A0CBFDB
S214004020022200228A701A6C02F00302CA70D3F8C9
S2140040309020C2F380120A71012200924FF480721F
S21400404001920022029208220392264A926904AC48
S21400405004EB800454F8105C2A4054F8084CE24004
S214004060012A14BF002201228A71302200924FF4E6
S21400407040520192042202920C220392194A92693B
S21400408004AC04EB800454F8105C2A4054F8084C46
S214004090E240012A1BD0022A0CBF022200224A71EB
S2140040A0D3F89020C2F38002CA71D3F8902002F0B1
S2140040B003020A72D3F89430C3F3C0034B7240B1C4
S2140040C000238B7204B030BC70470122AAE701229D
S2140040D0E5E7044B5B68C3F3C0438B72F2E700BFAF
S2140040E0E8010100008004400023037043708370E1
S2140040F08380C3807047174B53F82030D3F8902046
S21400410022F020020878002814BF20200020024356
S214004110C3F89020D3F8902022F0100248780028A8
S21400412014BF102000200243C3F89020D3F890203C
S21400413022F008028878002814BF082000200243D6
S214004140C3F890208A88C3F88820CA88C3F88C20D1
S214004150704700BFE80101000C4B53F82030D3F83D
S2140041609020C2F340120A70D3F89020C2F30012D7
S2140041704A70D3F89020C2F3C0028A70D3F8882021
S2140041808A80D3F88C30CB80704700BFE8010100EE
S21400419000230370437070470C4B53F82020D2F86E
S2140041A0943023F004030878002814BF042000206D
S2140041B00343C2F89430D2F8940020F003004B7802
S2140041C003F003030343C2F894307047E80101008C
S2140041D0064B53F82020D2F89430C3F380030B70BC
S2140041E0D2F8943003F003034B707047E8010100E7
S2140041F0002303701F234380704730B4124B53F8DC
S214004200200053881478A3F5706292B2052A0BD862
S2140042100E4A556825F4E025556055681B0403F4DE
S214004220E0232B435360152350F8212003F01F038F
S21400423022F05F021343002C14BF402200221343D7
S21400424040F8213030BC7047E8010100008004408F
S2140042500D4B53F8200050F82130C3F38013137031
S21400426050F8213003F01F0308494968152B01D088
S2140042705380704711F4002FFAD0044B5B68C3F3E9
S214004280024303F57063F3E7E80101000080044091
S21400429082B00E2300934FF4606301930C4B9B692E
S2140042A002AA02EB800252F8082C23EA020328B185
S2140042B0012808D0064A936102B07047490001F011
S2140042C00E010B43F6E7490201F460610B43F1E788
S2140042D00080044030B583B00446224B53F82020BB
S2140042E000231F2142F823100133102BFAD100219E
S2140042F011640C235364C2F88810C2F88C10C2F8FC
S2140043009010C2F89410C2F8A0100423C2F8B0307F
S214004310302300934FF440530193134B9A6902A83D
S21400432000EB840050F8085C22EA05029A6101223C
S21400433000924FF4807201929A6950F8080C22EAB3
S21400434000029A612046FFF7A3FF44B9064B5A685D
S21400435022F400225A605A6822F4E0225A6003B01F
S21400436030BD00BFE801010000800440044B53F854
S2140043702020D2F8903013F0800FFAD1704700BF9B
S214004380E8010100034B53F8203053F82100C0F336
S214004390C0107047E8010100044B53F8203012317A
S2140043A053F82130C3F30B0313807047E801010074
S2140043B02DE9F04383B0464B53F82040D4F89430B0
S2140043C0C3F38008D4F8947007F00307D4F890601D
S2140043D0D4F8943043F00303C4F89430D4F89430FF
S2140043E043F00403C4F89430D4F8903023F040032C
S2140043F0C4F890300023C4F8B430C4F8B830C4F819
S214004400BC30C4F8C030C4F8C430C4F8C830C4F8EF
S214004410CC3041228DF8042042228DF8052002A9D6
S21400442041F8083D256C4FEA551902AB184410F8C0
S214004430040C01F058F9009B09F0030923FA09F966
S214004440244A914512D9244A934208D9234A9342D2
S2140044503CD9234A934294BF0323002300E0012360
S214004460226C22F0600242EA43132364D4F89430AC
S21400447043F08003C4F89430D4F8943013F08003EB
S214004480FAD1226C22F0600205F06005154325641F
S214004490D4F8942022F00402B8F1000F18BF0423C9
S2140044A01343C4F89430D4F8943023F003031F4326
S2140044B0C4F89470D4F8903023F0400306F0400619
S2140044C01E43C4F8906003B0BDE8F0830223C7E73C
S2140044D0E801010040787D0181F0FA0203E1F5056C
S2140044E007C2EB0B04230380002343807047F0B41D
S2140044F0114B53F820200B88D2F8C400D2F8C070B5
S214004500D2F8BC60D2F8B850D2F8B440C2F8B03096
S2140045103844034433442B44234413F4784F14BFE5
S2140045204FF0FF3300239BB2C2F8AC308B78C2F852
S214004530A030F0BC704700BFE8010100064B53F8FE
S2140045402020D2F8B030C3F309030B80D2F8A03095
S214004550DBB24B80704700BFE8010100024B1844F5
S21400456090F90800704700BFE8010100074B53F8B8
S2140045702020012905D0D2F8903013F4702FFAD1FC
S2140045807047136C43F480731364F4E7E80101008A
S214004590044B53F82020D2F8903043F07063C2F8F2
S2140045A090307047E8010100034B53F82030D3F8F1
S2140045B09000C0F303607047E8010100074B5B6999
S2140045C0DBB2042B06D0802B06D0012B0CBF0120BB
S2140045D004207047022070470320704700E0074021
S2140045E0044BD3F8003113F0807F1ABF024B1868D3
S2140045F000207047004006405C0B002010B584B0D9
S2140046000B4600293BD0444AD2F8002112F0007F26
S2140046107DD1414AD2F8001121F40001C2F8001100
S2140046204FF08061C2F8001100213C4A116000285A
S21400463070D05A7A120202F4E062197A01F0070189
S2140046400A433548C0F80421DA79120102F0300234
S2140046509979C90001F008010A435979890001F0E7
S21400466004010A43C0F808211A79012A29D0E2B1C8
S214004670022A32D01A68294B1A60294C3BE00023E4
S2140046808DF804308DF80C3001228DF808208DF856
S21400469009208DF805208DF8063002238DF80730A6
S2140046A004AB204A43F8102DADE71A7B002A14BF4E
S2140046B04FF40002002242F001021749C1F800211F
S2140046C0D8E71A7B002A14BF4FF40002002242F0FB
S2140046D001121149C1F80021CCE71A7B002A14BF49
S2140046E04FF403024FF4403242F001020A49C1F887
S2140046F00021BFE7013CFFF773FF18B9002CF9D182
S214004700032005E0002C14BF0020032000E0022058
S21400471004B010BD0020FBE7004006405C0B002004
S21400472088E7300000127A00084BD3F8003213F006
S214004730807F09D0054BD3F8083203F00103002B25
S214004740034808BF0020704700207047004006401E
S21400475000127A0010B582B00B46002938D02D4AD8
S214004760D2F8002212F0007F4FD12A4AD2F8001267
S21400477021F40001C2F800120021C2F8001200283D
S21400478046D09A78120202F4E062597801F00701E6
S2140047900A432049C1F804221A7802F00102C1F83F
S2140047A0082259799A791B79002B14BF0323012319
S2140047B0002914BF042100210B43002A14BF4FF424
S2140047C0000200221343134AC2F80032642410E0A9
S2140047D000238DF8043001228DF805208DF8063070
S2140047E08DF801208DF8022002AB03F8082DB6E7FD
S2140047F0013CFFF799FF18B9002CF9D1032005E01A
S214004800002C14BF0020032000E0022002B010BDE0
S2140048100020FBE700400640054BD3F8003313F0BA
S214004820807F1DBF024BD3F8083302480020704734
S21400483000400640006CDC0210B582B00B46002932
S21400484032D0294AD2F8002312F0007F47D1264AF8
S214004850D2F8001321F40001C2F800134FF0806173
S214004860C2F8001300283DD09A78120202F4E062E3
S214004870597801F007010A431B49C1F804231A7846
S21400488002F00302C1F808239A795B79002B14BF63
S21400489001230923002A14BF4FF400020022134309
S2140048A0C1F8003314240EE001238DF805300022F1
S2140048B08DF806208DF801308DF8023002AB03F833
S2140048C0082DBEE7013CFFF7A7FF18B9002CF9D169
S2140048D0032005E0002C14BF0020032000E0022087
S2140048E002B010BD0020FBE70040064008B50F4BA5
S2140048F0D3F8003613F0807F02D10023184608BD97
S214004900FFF76EFE03460028F8D00849D1F80826BF
S214004910C2F302220132B0FBF2F3D1F80826C2F34A
S2140049200442103203FB02F35B08E7E70040064050
S21400493010B584B00C4699B13D4BD3F8003613F051
S214004940007F71D13A4BD3F8002622F40002C3F858
S21400495000264FF08062C3F8002698B9002064E075
S21400496000238DF804308DF80B3001228DF80820D6
S2140049708DF809208DF805308DF806308DF8073053
S21400498001ACD9E7FFF72CFE63791B0203F4E06362
S214004990227902F0070213432549C1F804366378EA
S2140049A01B0203F4E063A278120402F4F812134325
S2140049B0C1F808362378012B16D04BB1022B1FD036
S2140049C04FF47A74FFF792FF48BB34B3013CF9E723
S2140049D0E379002B14BF4FF40003002343F00103D8
S2140049E0134AC2F80036EBE7E379002B14BF4FF406
S2140049F00003002343F001130D4AC2F80036DFE738
S214004A00E379002B14BF4FF403034FF4403343F015
S214004A100103074AC2F80036D2E7032005E0002C5F
S214004A2014BF0020032000E0022004B010BD00BF29
S214004A30004006402DE9F04180460D468C78013452
S214004A404E7806FB04460F7807FB0447CB78013BFD
S214004A50052B1CD8DFE803F00312151B1B18FFF705
S214004A60BFFD0009B8F1020F4AD0B8F1030F7CD0A1
S214004A70B8F1010F0DD00020BDE8F081FFF754FE1D
S214004A80EFE7FFF7C9FEECE7FFF730FFE9E70020A6
S214004A90E7E7EA7802EB42015D4B53F821301B0949
S214004AA004FB03F4A04200F298800B46584901EB41
S214004AB083035B681B0906FB03F6B04200F2908096
S214004AC002EB420301EB83039B681B0907FB03F71A
S214004AD0B84200F28880AB781B0403F470231206F9
S214004AE002F0706213432A7802F00F0213436A78CA
S214004AF01201D2B21343474A53610020BDE8F08149
S214004B00EA7802EB4201424B03EB81035B6D1B0923
S214004B1004FB03F4A04269D80B463D4901EB83032E
S214004B209B6D1B0906FB03F6B04262D802EB4203FC
S214004B3001EB8303DB6D1B0907FB03F7B8425BD869
S214004B40AB781B0403F47023120602F07062134362
S214004B502A7802F00F0213436A781201D2B2134386
S214004B602C4A93610020BDE8F081EB7803EB43010B
S214004B70274A02EB8102D2F8A820120904FB02F4AD
S214004B80A0423CD80A46224901EB8202D2F8AC2069
S214004B90120906FB02F6B04234D803EB430201EBDF
S214004BA08202D2F8B020120907FB02F7B8422CD8CE
S214004BB0AA78120402F470221B0603F070631343F3
S214004BC02A7802F00F0213436A781201D2B2134316
S214004BD0104AD3610020BDE8F0810120BDE8F081D5
S214004BE00120BDE8F0810120BDE8F0810120BDE88C
S214004BF0F0810120BDE8F0810120BDE8F0810120B0
S214004C00BDE8F0810120BDE8F0810120BDE8F0811B
S214004C10F40101000040064038B50546FFF7CEFC1B
S214004C202946FFF707FF044658B9E8780A220849DC
S214004C30013A0B69C3F30363984204D0002AF7D104
S214004C400324204638BD002A08BF0324F9E700BF26
S214004C500040064010B504461B4B1B69C3F30363B4
S214004C60013B052B1DD8DFE803F00313161C1C19A7
S214004C70FFF7B6FC144B1B69C3F303430133B0FBC9
S214004C80F3F0012C0FD0ECB1022C14D0002010BD94
S214004C90FFF74AFDEEE7FFF7BFFDEBE7FFF726FE5F
S214004CA0E8E70020E6E7084B1B69C3F3031301336C
S214004CB0B0FBF3F010BD044B1B6903F00F03013388
S214004CC0B0FBF3F010BD00BF0040064008B50F4B28
S214004CD01B6AC3F30363062B15D8DFE803F004084A
S214004CE00B0E141411000220FFF7B4FF08BDFFF7E7
S214004CF077FC08BDFFF718FD08BDFFF78DFD08BD62
S214004D00FFF7F4FD08BD002008BD00BF00400640C8
S214004D1008B541B1012931D00020024610B1431E2A
S214004D2022FA03F008BD0438032852D8DFE800F062
S214004D300B02141DFFF770FD0246294BD3F804033F
S214004D4000F00700EAE7FFF7EFFC0246244BD3F833
S214004D50040200F00700E1E7FFF742FC0246204BA2
S214004D60D3F8040100F00700D8E7FFF7BFFD0246BE
S214004D701B4BD3F8040600F00700CFE704380328DF
S214004D802AD8DFE800F00B02141DFFF745FD0246A7
S214004D90134BD3F80403C0F30220BFE7FFF7C4FCAD
S214004DA002460F4BD3F80402C0F30220B6E7FFF723
S214004DB017FC02460A4BD3F80401C0F30220ADE705
S214004DC0FFF794FD0246064BD3F80406C0F3022014
S214004DD0A4E700200246A1E7002002469EE700BFA7
S214004DE00040064008B5114B1B69C3F30113032BA3
S214004DF019D8DFE803F00207101300210620FFF79A
S214004E0087FF08BD094B186900F00200002818BF8C
S214004E104FF4FA4008BD064B186808BD002105206F
S214004E20FFF776FF08BD002008BD00BF00800440E5
S214004E30600B002038B51D4B03EB4000B0F8FC308B
S214004E409B0003F1804303F5CA231D68C5F3C00524
S214004E501C6804F00704AC4225D31868C0F38070C1
S214004E6010B31B68C3F30263013B052B19D8DFE8B8
S214004E7003F0030C101818140620FFF749FF01343E
S214004E80B0FBF4F005FB000038BD0420FFF740FF40
S214004E90F5E70520FFF73CFFF1E70720FFF738FFAF
S214004EA0EDE70020EBE7002038BD00BFF40101006D
S214004EB00F4B1B69C3F38103022B07D0032B0ED0C5
S214004EC0002B0CBF4FF4FA3000207047084B1869CF
S214004ED000F00200002818BF4FF4FA407047044B59
S214004EE0186900F00200002818BF4FF4FA40704717
S214004EF00080044008B5244B5B6813F4006F40D074
S214004F00214B5B68C3F303130E2B09D8DFE803F0CD
S214004F100A080D081208171C20252F0829082C003F
S214004F20002026E0FFF7D2FE23E001210620FFF74F
S214004F30EFFE1EE001210420FFF7EAFE19E0012142
S214004F400520FFF7E5FE14E00020FFF783FE10E0E3
S214004F5001210720FFF7DCFE0BE00120FFF77AFEB9
S214004F6007E0FFF7A5FF04E0FFF73CFF01E04FF482
S214004F70FA30054B5B68C3F302230133B0FBF3F052
S214004F8008BD002008BD00BF0080044030B583B0D7
S214004F900546FFF7ABFC88B1062D56D006238DF8E4
S214004FA0073002238DF8063001238DF8053002A85D
S214004FB000F8043DFFF730FE044600E00124FFF74A
S214004FC02BFC10B1032D4AD074B9FFF709FB10B1C2
S214004FD0012D4DD0D4B9FFF7A7FB10B1022D00D09C
S214004FE01CBB204603B030BD03238DF807300022DB
S214004FF08DF8062001228DF8052002A800F8043D51
S214005000FFF70AFE0446E0E70124E3E701238DF8F4
S214005010073000228DF806208DF8053002A800F82B
S214005020043DFFF7F9FD0446D5E702238DF8073067
S21400503000238DF806308DF8053002A8012300F80D
S214005040043DFFF7E9FD0446CBE7FFF7E5FB002844
S214005050CAD1FFF7C5FA0028D6D10124BBE7FFF76F
S214005060BFFA0028B6D1FFF75FFB0028B8D1B8E733
S214005070FFF75AFB0028B3D1B3E7174B1B69C3F3FE
S2140050800363013B052B06D8DFE803F0031D20056C
S21400509005230123C37010490A69104BC2F303129B
S2140050A01A4492F89C2142700A69C2F303421A44D9
S2140050B092F89C2182700A6902F00F02134493F85A
S2140050C09C31037070470223C370E4E70323C37068
S2140050D0E1E70623C370DEE700400640F401010066
S2140050E001383F282DD8DFE800F02A282C262C2C63
S2140050F02C242C2C2C2C2C2C2C222C2C2C2C2C2CFD
S2140051002C2C2C2C2C2C2C2C2C202C2C2C2C2C2CE6
S2140051102C2C2C2C2C2C2C2C2C2C2C2C2C2C2C2CCA
S2140051202C2C2C2C2C2C2C2C2C2E062070470520BE
S2140051307047042070470320704702207047012004
S21400514070470020704707207047F0B5A1B028B31D
S21400515004460646002800F0FE80644B1B69C3F335
S2140051600363032B00F0C880FFF756FB002800F00F
S214005170B48003238DF8073000228DF80620012224
S2140051808DF8052020A800F87C3DFFF745FD054674
S214005190002800F0B180284621B0F0BD01238DF82C
S2140051A00B3000228DF80C208DF80D308DF80E2077
S2140051B08DF808308DF809308DF80A308DF81630E5
S2140051C08DF814308DF815208DF80F208DF81030DE
S2140051D08DF811308DF838300D928DF82530444911
S2140051E006918DF81C208DF824208DF81D308DF842
S2140051F01E2002208DF81F008DF820308DF82130FB
S2140052008DF830308DF828208DF82F208DF8292045
S2140052100C218DF82A108DF82B208DF82C308DF867
S2140052202D308DF83D3003218DF83C108DF84B3035
S2140052308DF841108DF840208DF83F308DF83E30C7
S2140052408DF845008DF844308DF843208DF84210D7
S21400525006208DF849008DF848208DF847308DF8E7
S214005260461024491E9120211D918DF84C308DF852
S2140052704D208DF84E208DF84F208DF850308DF84B
S21400528054308DF853308DF852208DF851208DF81B
S21400529068308DF869308DF86A308DF86B308DF88F
S2140052A06C308DF86D308DF873308DF8583017925D
S2140052B0189219928DF86E308DF86F308DF8702038
S2140052C08DF871208DF872208DF87C308DF87D3049
S2140052D08DF87E2002AE34463FE700210120FFF71E
S2140052E0ABFA054600287FF456AF42E7004006407A
S2140052F000127A000094FF1F3146E078FFF72AFA82
S2140053000546002800F02881FFF758F9022800F02B
S2140053105D81032800F05D81012800F03781002DB3
S2140053207FF439AF94F8303013B1E26AAA4B1A60B2
S21400533094F8353053B1A9490A6A22F0706294F89D
S21400534034301B0603F0706313430B6294F843304B
S214005350002B40F0AA8114F16C0F3AD0236F002B7B
S21400536037D0E36E002B34D000219D489D4D01EBD5
S2140053708102236F9B5C00EB4303B3F8FC309B0079
S21400538003F1804303F5CA231E6826F080461E609C
S214005390236F9F189E5CBB781B0603F0E063FA78C9
S2140053A0D20002F0080213433A7902F007021343D0
S2140053B07A78002A14BF4FF080420022134300EB95
S2140053C04606B6F8FC2045F822300131E36E9942D5
S2140053D0CDD394F84430C3B194F8463094F84720BF
S2140053E08149496821F47F6194F84500002814BF7C
S2140053F04FF4006000201B01DBB2120202F4E062F0
S21400540013430B430343784A536094F84830DBB1A8
S21400541094F84A3094F849207349096921F03F010D
S21400542094F84C00084394F84B10002914BF02214E
S21400543000219B0003F00C030343120102F030022C
S21400544013430B43684A136194F86030002B37D03F
S214005450654B196C21F0010194F861200A431A6427
S2140054601B6C23F0020394F86220002A14BF022269
S214005470002213435C4A1364136C23F0040394F86D
S2140054806320002A14BF042200221343564A1364E2
S214005490136C23F0080394F86420002A14BF082233
S2140054A000221343504A1364136C23F0100394F83D
S2140054B06520002A14BF1022002213434A4A1364B0
S2140054C094F8503033B1494B626D1A60A26D5A6041
S2140054D0E26D9A6094F86630EBB1434A936E002012
S2140054E09066516821F4805194F868301B0303F4E9
S2140054F080530B435360906694F867305BB194F822
S21400550069305B0003F00E0394F86A2042F0805284
S2140055101343354A936694F87430002B00F0E1800C
S21400552033498B7803F07F0394F8752082F00102EC
S21400553043EAC213DBB28B7094F97630002BBCBF03
S21400554020335BB22A490A7903F01F0302F0E00217
S21400555013430B7100251EE604F11001607FFFF770
S2140055604DF8054600287FF4CFAE04F1200194F8EC
S2140055702800FFF7DDF90546FFF720F8022825D0BA
S214005580032826D0012801D0002601E004F13606C3
S214005590002D7FF4C4AEF378032B2BD08DF80730A4
S2140055A0B3788DF8063073788DF80530337820A8F8
S2140055B000F87C3DFFF730FB054600287FF4AFAED1
S2140055C0E11DA07BFFF738F90546A8E604F13A0688
S2140055D0DEE704F13E06DBE7600B002000400640F5
S2140055E0F40101000050064000800440640B0020D7
S2140055F000D0074094F828300BBB637F93BBE3785A
S214005600002B42D10125002D7FF489AEE11DA07B41
S214005610FFF712F9054600287FF481AEF3788DF87F
S2140056200730B3788DF8063073788DF80530337808
S21400563020A800F87C3DFFF7EFFA05466FE6062344
S2140056408DF8073002238DF8063001238DF80530DB
S21400565020A800F87C3DFFF7DFFA0546637F7BB1A4
S2140056600128D0D101238DF8073000228DF80620BE
S2140056708DF8053020A800F87C3DFFF7CDFA0546EA
S214005680E378002BBFD0012DBDD102238DF8073063
S21400569000238DF806308DF8053020A8012300F889
S2140056A07C3DFFF7B9FA0546ADE704F13601012067
S2140056B0FFF7C0F9054600287FF46DAD04F13A0106
S2140056C00220FFF7B7F9054600287FF464AD04F121
S2140056D03E010320FFF7AEF9054600287FF45BADD8
S2140056E039E6002557E570B504460D46112807D95A
S2140056F0232840F285804D2840F24F81042070BD5B
S21400570011287AD8DFE800F00913191F24292E3350
S214005710383C41484F565D646B720020FFF79AFA9A
S21400572003460020002D00F0AF812B6070BD0120E5
S214005730FFF790FA03460020F4E70220FFF78AFA04
S21400574003460020EEE7FFF7D5FB03460020E9E717
S214005750FEF7EAFF03460020E4E7FFF75DF803469E
S2140057600020DFE7FEF73CFF03460020DAE7FFF7FE
S214005770BDF803460020D5E7A94B1B680020D1E7FB
S214005780FFF7A4FA03460020CCE700210420FFF729
S214005790BFFA03460020C5E701210420FFF7B8FA48
S2140057A003460020BEE700210520FFF7B1FA0346B6
S2140057B00020B7E701210520FFF7AAFA03460020DC
S2140057C0B0E700210620FFF7A3FA03460020A9E76A
S2140057D001210620FFF79CFA03460020A2E70021DD
S2140057E00720FFF795FA034600209BE701210720D4
S2140057F0FFF78EFA0346002094E70023042091E783
S214005800A0F115040E2C00F29980DFE804F00814CD
S214005810202B353E434F5A656D767F878F00814B30
S214005820DB68C3F30163022B00F28B807E4A52F8DA
S2140058302330002024E07B4BDB68C3F38163022B1C
S21400584000F28280784A52F82330002018E0754B28
S214005850DB68C3F30173022B79D8734A52F82330FE
S21400586000200DE06F4BDB689B0F022B72D86E4A50
S21400587052F82330002003E0FFF73CFB03460020ED
S214005880002D00F001812B6070BDFFF7ABFA0346D8
S2140058900020F5E7654B9B78DB0902D0002318460D
S2140058A0EEE7FFF705FB03460020E9E75F4B9B7832
S2140058B0DB0952D15B4B1B6913F0010350D100206A
S2140058C0DEE75A4B9B78DB094ED1564B1B6913F02B
